:020000040800F2
:10000000D0090020A9010008B1010008B3010008CF
:10001000B5010008B7010008B901000800000000A0
:10002000000000000000000000000000BB0100080C
:10003000BD01000800000000BF010008C13B00082E
:10004000C3010008C3010008C3010008C301000880
:10005000C3010008C3010008670900087D09000802
:10006000C3010008C3010008C3010008C301000860
:10007000C3010008C3010008C3010008C301000850
:10008000C3010008C3010008C3010008000000000C
:1000900000000000000000000000000087090008C8
:1000A000C3010008C3010008C3010008C301000820
:1000B000C3010008C3010008C3010008C301000810
:1000C000C3010008C3010008C3010008C301000800
:1000D000C3010008C301000801420008000000003D
:1000E00071090008C3010008C301000800000000F6
:1000F000000000000000000000000000C301000834
:1001000000000000C3010008C3010008C30100088B
:1001100000000000000000000000000000000000DF
:10012000C3010008C3010008C3010008C30100089F
:10013000C3010008000000000000000000000000F3
:10014000000000000000000000000000C3010008E3
:10015000C3010008C3010008C3010008C30100086F
:10016000C3010008C30100080000000000000000F7
:10017000000000000000000000000000000000007F
:1001800000000000C30100080000000000000000A3
:10019000C3010008DFF80CD000F044F80048004725
:1001A00029460008D0090020064880470648004735
:1001B000FEE7FEE7FEE7FEE7FEE7FEE7FEE7FEE717
:1001C000FEE7FEE7653C00089501000800F00042EC
:1001D00030F000400AD0C10D01F56071C0F3160087
:1001E00042EA0151C208400711437047002001460E
:1001F0007047000030B5041E71F1000404DB4FF0BD
:100200000044404264EB0101141E73F1000405DB5D
:100210001C464FF00043524263EB04038B4208BF7D
:10022000824230BD064C074D06E0E06840F0010315
:1002300094E8070098471034AC42F6D3FFF7AEFFBE
:10024000FC4E00081C4F000870B58C1810F8015BBC
:1002500015F0070301D110F8013B2A1106D110F85F
:10026000012B03E010F8016B01F8016B5B1EF9D163
:100270002B0705D40023521E0DD401F8013BFAE7E9
:1002800010F8013BCB1A921C03E013F8015B01F854
:10029000015B521EF9D5A142D8D3002070BD0000E9
:1002A00070B50446024D2146284600F021F870BD85
:1002B000F002002070B50446024D2146284600F0A9
:1002C00017F870BD0803002070B50446024D2146A2
:1002D000284600F00DF870BD2003002070B50446DC
:1002E000024D2146284600F003F870BD3803002077
:1002F00070B504460D46207861698847E06841681A
:10030000284688472069416805F15800884770BD34
:1003100000B50246002000F01FFB904201D10E48BC
:1003200000BD012000F018FB904202D10A481830AD
:10033000F6E7022000F010FB904202D10648303070
:10034000EEE7032000F008FB904202D1024848305B
:10035000E6E70020E4E70000F002002010B50446C4
:10036000012C06D1062000F031FF072000F02EFFFF
:1003700005E0062000F0F4FE072000F0F1FE10BDBD
:1003800010B5002000F0E8FA034600F0C3FA00F0D0
:10039000F3F900F0DFF80120FFF7E0FF10BD0000E7
:1003A00070B50446024D2146284602F0BDFB70BDE3
:1003B0001001002070B50446024D2146284602F087
:1003C000B3FB70BD4C01002070B50446024D2146C0
:1003D000284602F0A9FB70BD8801002070B50446D4
:1003E000024D2146284602F09FFB70BDC40100204B
:1003F00070B50446024D2146284602F095FB70BDBB
:100400000002002070B50446024D2146284602F045
:100410008BFB70BD3C02002070B50446024D2146A6
:10042000284602F081FB70BD7802002070B50446BA
:10043000024D2146284602F077FB70BDB402002031
:1004400070B506460C461546304600F063FA20B1FA
:100450002946204602F0F2FA70BDFF20FCE770B595
:1004600006460C461546304600F054FA20B129469F
:10047000204602F0DDFC70BDFF20FCE770B50546AC
:100480000C46284600F046FA18B1204602F00CFD52
:1004900070BD0020FCE770B505460C46284600F00C
:1004A00039FA10B1204602F021FD70BD70B5054645
:1004B0000C46284600F02EFA10B1204602F030FD1E
:1004C00070BD70B506460C461546304600F022FA5F
:1004D00018B12946204602F03DFD70BD2DE9F041DE
:1004E00007460C4615461E46384600F013FA20B162
:1004F00032462946204602F04BFDBDE8F0812DE949
:10050000F04107460C4615461E46DDF81880384671
:1005100000F000FA28B1434632462946204602F050
:1005200057FDBDE8F08170B505460C46284600F041
:10053000F1F910B1204602F069FD70BD70B50546B5
:100540000C46284600F0E6F910B1204602F078FD8E
:1005500070BD000070B51D4A11895068002200F07E
:100560007DFD1A4A11895068012200F077FD0020B4
:1005700000F0F2F904461CE0204600F0CBF9144AE2
:1005800011895068012200F069FD002002F072FD1F
:10059000054607E0284603F047F8284602F084FCA9
:1005A000681CC5B2012002F065FDA842F2DA601CA9
:1005B000C4B2002000F0D0F9A042DDDA002000F043
:1005C000CBF9034600F0A6F970BD000050030020EF
:1005D000C80300202DE9F04107460C4615461E468B
:1005E000384600F097F920B132462946204602F0FD
:1005F0004BFDBDE8F0812DE9F04107460C4615465C
:100600001E46384600F086F920B13246294620467B
:1006100002F0D8FFBDE8F08170B505460C462846CB
:1006200000F078F910B1204602F0FEFF70BD70B501
:1006300005460C46284600F06DF910B1204603F03F
:100640000DF870BD2DE9F04107460C4615461E46D3
:10065000384600F05FF920B132462946204603F0C3
:1006600017F8BDE8F0812DE9F04107460C46154624
:100670001E46384600F04EF920B132462946204643
:1006800003F022F8BDE8F08170B505460C46284617
:1006900000F040F910B1204603F032F870BD70B59B
:1006A00005460C46284600F035F910B1204603F007
:1006B00041F870BD70B506460C461546304600F050
:1006C00029F918B12946204603F04EF870BD000004
:1006D00010B586B0044600BF6CB900BF134800686F
:1006E00040F00100114908600846006800F0010070
:1006F000009000BF00BF00BF0D4830F8140001900B
:10070000012002900390022004900A4951F824002D
:1007100001A900F097FA064A32F81410054A52F877
:100720002400002200F09AFC06B010BD30380240D0
:10073000364C0008B400002010B50446044A32F8D4
:100740001410044A52F82400002200F087FC10BD67
:10075000364C0008B400002010B50446044A32F8B4
:100760001410044A52F82400012200F077FC10BD56
:10077000364C0008B400002010B586B03848006838
:1007800038490968084336490860364800890190AD
:100790001120029000200390032004903149486802
:1007A00001A900F04FFA2E4800682F490968084354
:1007B0002B4908602C48008901902C4802900020A9
:1007C00003902949486801A900F03CFA002211462B
:1007D000062000F031FD22480068254909680843D9
:1007E0001F4908602248008901902048029000209B
:1007F00003901F49486801A900F024FA002211461D
:10080000072000F019FD002000F0A6F8044620E0C3
:100810001348006804EB4401164A52F821100843BB
:100820000F49086004EB4400114601EB8000008989
:10083000019001200290002003900320049004EB1B
:10084000440102EB8101486801A900F0FBF9601C3A
:10085000C4B2002000F080F8A042D9DA06B010BD82
:1008600030380240500300205C03002000002110BB
:10087000680300207403002030B587B004460D469D
:1008800000BF6CB900BF1E48006840F004001C495E
:1008900008600846006800F00400019000BF00BF37
:1008A00000BF75B9174830F814000290002003907B
:1008B000022004900590144951F8240002A900F088
:1008C000C1F9012D19D10F4830F814000290002011
:1008D00004900E4803900C4951F8240002A900F03E
:1008E000B1F90B49095D48B200220F2100F0A4FCC8
:1008F0000749095D48B200F069FC07B030BD00004F
:1009000030380240384C0008B800002000002110A8
:100910003A4C00080146012918DA01EB41000C4A63
:1009200052F820000B4A106001EB4100084A02EB2C
:1009300080004068074A506001EB4100044A02EB26
:1009400080000089034A1081012070470020FCE7E5
:1009500074030020C80300200146012901DA08467B
:100960007047FF20FCE710B5012000F05DF910BDD5
:1009700010B54FF4005000F057F910BD10B502202B
:1009800000F052F910BD10B54FF4807000F04CF932
:10099000402000F049F910BD004870473C4C000869
:1009A00038B505460C46002000902068122800D873
:1009B00004E040F2244174A003F0D0FD606818B157
:1009C0006068102800D804E040F225416EA003F0D2
:1009D000C5FDA068A0B1A068012811D0A0680228B8
:1009E0000ED0A06803280BD0A068042808D0A06807
:1009F000052805D0A068062802D0A068072800D1E5
:100A000004E040F2264160A003F0A8FD00BF95F885
:100A10003C00012801D1022038BD012085F83C00AE
:100A200000BF2068092816D92868C06821780A39CB
:100A300001EB41020721914088432968C860217871
:100A40000A3901EB4101A06888402968C968084358
:100A50002968C86013E028680069217801EB410229
:100A600007219140884329680861217801EB410101
:100A7000A068884029680969084329680861606896
:100A8000072817D22868406B2179491E01EB8102A3
:100A90001F219140884329684863208880B22179CA
:100AA000491E01EB810188402968496B0843296888
:100AB000486331E060680D2817D22868006B2179FF
:100AC000C91F01EB81021F219140884329680863F7
:100AD000208880B22179C91F01EB810188402968F3
:100AE000096B08432968086316E02868C06A217901
:100AF0000D3901EB81021F21914088432968C862AA
:100B0000208880B221790D3901EB81018840296864
:100B1000C96A08432968C8622A492868884208D1F6
:100B20002068122805D12848006840F48000C1F8E8
:100B300004032449286888421ED12068102802D066
:100B40002068112818D12048006840F400001E4990
:100B50000860206810280FD11C4800681C49B0FBB1
:100B6000F1F000EB80004000009002E00098401E91
:100B7000009000980028F9D100BF002085F83C00C3
:100B800000BF00BF48E700002E2E5C2E2E5C447292
:100B900069766572735C53544D3332463478785FAE
:100BA00048414C5F4472697665725C5372635C7352
:100BB000746D3332663478785F68616C5F6164634A
:100BC0002E6300000020014004230140A403002004
:100BD00040420F0031B5002400F07AFA044600BF0D
:100BE00000F076FA001B00998842F9D338BD000066
:100BF00010B5044608A10B4803F0E2FB402C05D0D9
:100C0000B4F5807F05D103F05FFE02E003F05CFEE7
:100C100000BF00BF10BD0000494E5445525550540E
:100C200000000000C804002010B504460448006815
:100C3000204020B1024804602046FFF7D9FF10BDD4
:100C4000143C01402DE9F84306460C464FF00009DC
:100C5000C8460025CA4886420ED0CA4886420BD0F4
:100C6000C948864208D0C948864205D0C84886424D
:100C700002D0C848864200D103E0C521C6A003F0D7
:100C80006DFC208880B200B103E0C621C2A003F051
:100C900065FC606830B36068012823D06068112863
:100CA00020D0606802281DD0606812281AD0C94977
:100CB0006068884216D0C8496068884212D0C74927
:100CC000606888420ED0C649606888420AD0C5492B
:100CD0006068884206D0C4496068884202D0606873
:100CE000032800D103E0C721ABA003F037FCA068C4
:100CF00028B1A068012802D0A068022800D103E032
:100D0000C821A5A003F02AFC002734E1012000FA45
:100D100007F9206800EA0908C8457DD16068022803
:100D200002D06068122863D12069E8B320690928DD
:100D300045D02069C0B32069B0B32069A0B3206951
:100D400090B3206901283AD02069012837D0206962
:100D5000022834D02069022831D0206902282ED000
:100D6000206904282BD02069042828D02069042871
:100D700025D02069052822D0206905281FD02069A8
:100D800006281CD02069052819D02069072816D00C
:100D90002069072813D02069082810D020690A2864
:100DA0000DD02069092800E009E008D02069092851
:100DB00005D020690C2802D020690F2800D103E05B
:100DC000D92175A003F0CAFBF90806F1200050F8FC
:100DD00021507807C10E0F20884085437907C90E3E
:100DE000206988400543F90806F1200040F82150A9
:100DF00035687900032088408543207900F003009E
:100E00007900884005433560606801280AD0606831
:100E1000022807D0606800E0ACE0112802D06068CA
:100E2000122823D1E06840B1E068012805D0E068CD
:100E3000022802D0E068032800D103E0EC2156A08C
:100E400003F08CFBB5687900032088408543790066
:100E5000E06888400543B56075680120B840854367
:100E60002079C0F30010B84005437560F56879003B
:100E70000320884085437900A06888400543F560D9
:100E8000606800F08050B0F1805F73D100BF5748B8
:100E9000006840F48040554908600846006800F446
:100EA0008040009000BF00BF5148B90850F8215061
:100EB000B807010F0F20884085433148864201D191
:100EC000002014E02F48864201D101200FE02E4877
:100ED000864201D102200AE02C48864201D103203B
:100EE00005E02B48864201D1042000E00520B90727
:100EF000090F884005433E48B90840F821503D4855
:100F0000056825EA0805606800F48030B0F5803F88
:100F100001D145EA080537480560001D056825EA46
:100F20000805606800F40030B0F5003F01D145EAE3
:100F300008053048001D0560001D056825EA080504
:100F4000606800F48010B0F5801F01D145EA080503
:100F5000284808300560001D056825EA0805606816
:100F600000F40010B0F5001F01D145EA0805214842
:100F70000C3005607F1C102FFFF4C8AEBDE8F8836D
:100F8000000002400004024000080240000C024041
:100F900000100240001C02402E2E5C2E2E5C44727B
:100FA00069766572735C53544D3332463478785F9A
:100FB00048414C5F4472697665725C5372635C733E
:100FC000746D3332663478785F68616C5F6770691E
:100FD0006F2E63000000111000002110000031107E
:100FE00000001210000022100000321044380240AD
:100FF00008380140003C014070B506460C46A0B2DE
:1010000000B104E04FF4C87105A003F0A7FA3069FD
:10101000204008B1012500E00025284670BD0000F1
:101020002E2E5C2E2E5C447269766572735C53546E
:101030004D3332463478785F48414C5F447269766C
:1010400065725C5372635C73746D333266347878A6
:101050005F68616C5F6770696F2E630070B50646EC
:101060000C461546A0B200B104E040F2B11109A04F
:1010700003F074FA0DB1012D00D104E04FF4D971E1
:1010800004A003F06BFA0DB1B46101E02004B0617B
:1010900070BD00002E2E5C2E2E5C44726976657247
:1010A000735C53544D3332463478785F48414C5F1B
:1010B0004472697665725C5372635C73746D33322B
:1010C000663478785F68616C5F6770696F2E630063
:1010D0000148006870470000B00000200248006826
:1010E000401C014908607047B000002010B50D4851
:1010F000006840F400700B4908600846006840F43E
:10110000806008600846006840F480700860032032
:1011100000F0FEF8002000F007F800F017F80020BB
:1011200010BD0000003C024070B5044600F060FBBA
:101130004FF47A71B0FBF1F5284601F002FA002273
:101140002146501E00F078F8002070BD10B5072031
:1011500000F0DEF800221146501E00F06DF810BDC0
:1011600010B50446002C00DB03E0E02106A003F0EC
:10117000F5F900BF04F01F010120884012496209FF
:1011800041F8220000BF10BD2E2E5C2E2E5C447252
:1011900069766572735C53544D3332463478785FA8
:1011A00048414C5F4472697665725C5372635C734C
:1011B000746D3332663478785F68616C5F636F7228
:1011C0007465782E6300000080E100E010B50446ED
:1011D000002C00DB03E0D02107A003F0BFF900BF23
:1011E00004F01F01012088406109890001F1E0211C
:1011F000C1F8000100BF10BD2E2E5C2E2E5C447283
:1012000069766572735C53544D3332463478785F37
:1012100048414C5F4472697665725C5372635C73DB
:10122000746D3332663478785F68616C5F636F72B7
:101230007465782E630000002DE9F05F80460C464F
:1012400015460027102D00D203E0BC2120A003F09A
:1012500085F9102C00D203E0BD211DA003F07EF91A
:1012600002F066FB0746394622462B4601F007008E
:10127000C0F1070ABAF1040F02D94FF0040A01E0E5
:10128000C0F1070AD14600F1040ABAF1070F02D2F1
:101290004FF0000A01E0A0F1030AD4464FF0010A22
:1012A0000AFA09FAAAF1010A0AEA020A0AFA0CFA87
:1012B0004FF0010B0BFA0CFBABF1010B0BEA030B2C
:1012C0004AEA0B063146404602F03AFBBDE8F09F81
:1012D0002E2E5C2E2E5C447269766572735C5354BC
:1012E0004D3332463478785F48414C5F44726976BA
:1012F00065725C5372635C73746D333266347878F4
:101300005F68616C5F636F727465782E63000000C4
:1013100010B50446072C07D0062C05D0052C03D0A9
:10132000042C01D0032C00D103E0A42109A003F078
:1013300015F900BF04F00701164A10684FF6FF02C6
:101340001040154A024342EA0120124A106000BFD1
:1013500010BD00002E2E5C2E2E5C447269766572E4
:10136000735C53544D3332463478785F48414C5F58
:101370004472697665725C5372635C73746D333268
:10138000663478785F68616C5F636F727465782E1D
:10139000630000000CED00E00000FA0570B50446A3
:1013A0000D4600262068012803D320680F2800D8A6
:1013B00004E04FF41871FBA003F0D0F86DB1012DDB
:1013C0000BD0022D09D0032D07D0042D05D0052DFB
:1013D00003D0062D01D0072D00D104E040F2612199
:1013E000F0A003F0BBF8FE48006800F00F00A84230
:1013F0007CD2FB490D700846006800F00F00A8423F
:1014000001D0012070BD207800F00200022827D111
:10141000A068B8B1A068802814D0A068902811D026
:10142000A068A0280ED0A068B0280BD0A068C02863
:1014300008D0A068D02805D0A068E02802D0A06815
:10144000F02800D104E040F27721D6A003F086F81E
:10145000E448006820F0F000A1680843E149086012
:10146000207800F00100002850D0606840B160682A
:10147000012805D06068022802D06068032800D1E6
:1014800004E040F27E21C7A003F068F860680128FC
:1014900007D1D44808380068C0F34040B8B90120EB
:1014A000B0E76068022802D06068032807D1CD4801
:1014B00008380068C0F3406048B90120A2E7C94875
:1014C00008380068C0F3400008B901209AE7C54811
:1014D000006820F0030061680843C2490860FFF714
:1014E000F7FD06466068012811D109E048E0FFF7E2
:1014F000EFFD801B41F28831884201D9032081E74A
:10150000B848006800F00C000428F0D1FDE06068E5
:10151000022810D108E0FFF7DBFD801B41F2883183
:10152000884201D903206DE7AE48006800F00C0046
:101530000828F0D1E9E06068032810D108E0FFF73F
:10154000C7FD801B41F28831884201D9032059E749
:10155000A448006800F00C000328F0D1D5E008E0B2
:10156000FFF7B6FD801B41F28831884201D9032084
:1015700048E79C48006800F00C000028F0D1C4E067
:10158000207800F00200022827D1A068B8B1A06836
:10159000802814D0A068902811D0A068A0280ED070
:1015A000A068B0280BD0A068C02808D0A068D028B8
:1015B00005D0A068E02802D0A068F02800D104E09F
:1015C00040F2D12177A002F0C9FF8648006820F0E0
:1015D000F000A168084383490860207800F001000A
:1015E00000284FD0606840B16068012805D060686D
:1015F000022802D06068032800D104E04FF436715D
:1016000068A002F0ABFF6068012807D17548083870
:101610000068C0F34040B8B90120F3E660680228D2
:1016200002D06068032807D16E4808380068C0F30C
:10163000406048B90120E5E66A4808380068C0F310
:10164000400008B90120DDE66648006820F003008C
:101650006168084363490860FFF73AFD0646606821
:10166000012810D108E0FFF733FD801B41F28831DB
:10167000884201D90320C5E65A48006800F00C00F2
:101680000428F0D137E06068022810D108E0FFF7A5
:101690001FFD801B41F28831884201D90320B1E649
:1016A0005048006800F00C000828F0D123E0606882
:1016B000032810D108E0FFF70BFD801B41F28831B1
:1016C000884201D903209DE64648006800F00C00DE
:1016D0000328F0D10FE008E0FFF7FAFC801B41F28D
:1016E0008831884201D903208CE63E48006800F02A
:1016F0000C000028F0D13A490D700846006800F04F
:101700000F00A84201D001207CE6207800F0040000
:1017100004281FD1E06878B1E068B0F5805F0BD095
:10172000E068B0F5A05F07D0E068B0F5C05F03D017
:10173000E068B0F5E05F00D104E040F2323119A07A
:1017400002F00CFF2748006820F4E050E1680843ED
:1017500024490860207800F00800082820D120697A
:1017600078B12069B0F5805F0BD02069B0F5A05F3B
:1017700007D02069B0F5C05F03D02069B0F5E05F05
:1017800000D104E040F2393106A002F0E7FE15482E
:10179000006820F46040216940EAC10011490860F6
:1017A000002021E02E2E5C2E2E5C4472697665723C
:1017B000735C53544D3332463478785F48414C5F04
:1017C0004472697665725C5372635C73746D333214
:1017D000663478785F68616C5F7263632E630000C3
:1017E000003C024008380240FFF79EFC002009E65A
:1017F00010B500F045F80949096801F0F001F02240
:1018000092FAA2F2B2FA82F2D140054A515CC84083
:10181000044908600846006810BD0000083802400E
:10182000264C0008A403002010B5FFF7E1FF07498C
:10183000096801F4E0514FF4E05292FAA2F2B2FAD0
:1018400082F2D140024A515CC84010BD08380240C3
:10185000264C000810B5FFF7CBFF0749096801F4D3
:1018600060414FF4604292FAA2F2B2FA82F2D140A1
:10187000024A515CC84010BD08380240264C00089E
:1018800070B50021002200230020274C246804F0BA
:101890000C0424B1042C04D0082C41D103E02348CB
:1018A00040E023483EE0204C241F246804F03F0120
:1018B0001D4C241F246804F4800484B11C4CB4FB28
:1018C000F1F5194C241F246847F6C076344096FA87
:1018D000A6F6B6FA86F6F44005FB04F20FE0134CC8
:1018E000B4FBF1F5104C241F246847F6C076344051
:1018F00096FAA6F6B6FA86F6F44005FB04F20A4C10
:10190000241F246804F440344FF4403595FAA5F5BB
:10191000B5FA85F5EC40641C6300B2FBF3F001E01E
:10192000024800BF00BF70BD083802400024F40028
:1019300000127A0038B50446002520680F2800D828
:1019400004E04FF48071F4A002F008FE207800F06B
:101950000100002874D0606828B16068012802D0B6
:101960006068052800D104E040F20511EAA002F009
:10197000F5FDF848006800F00C0004280DD0F5488B
:10198000006800F00C00082813D1F248001F00681E
:1019900000F48000B0F5800F0BD1EE4808380068E5
:1019A000C0F3404000284BD06068002848D1012097
:1019B00038BD0020E749891F0870FFF789FB0546FD
:1019C00008E0FFF785FB401B41F28831884201D9CE
:1019D0000320EDE7DF4808380068C0F340400028E6
:1019E000EFD12079DB49891F08706068A0B1FFF74B
:1019F0006FFB054608E0FFF76BFB401B41F28831A7
:101A0000884201D90320D3E7D24808380068C0F3E0
:101A100040400028EFD013E0FFF75AFB054608E0EE
:101A2000FFF756FB401B41F28831884201D9032061
:101A3000BEE7C84808380068C0F340400028EFD12E
:101A4000207800F0020002287DD1E06810B1E06843
:101A5000012800D104E04FF4A371AFA002F07EFD95
:101A600020691F2800D804E040F24711AAA002F024
:101A700075FDB848006800F00C0058B1B548006822
:101A800000F00C00082821D1B248001F006800F4C3
:101A90008000D8B9AF4808380068C0F3400020B1D2
:101AA000E068012801D0012082E7AA4808380068D0
:101AB00020F0F800F82292FAA2F2B2FA82F221693A
:101AC00091400843A349083908603CE0E06828B326
:101AD0000120A1490860FFF7FBFA054606E0FFF781
:101AE000F7FA401B642801D9032061E799480838B8
:101AF0000068C0F340000028F1D09648083800681C
:101B000020F0F800F82292FAA2F2B2FA82F22169E9
:101B1000914008438F490839086014E000208E493D
:101B20000860FFF7D5FA054606E0FFF7D1FA401B3B
:101B3000642801D903203BE7864808380068C0F3D1
:101B400040000028F1D1207800F00800082837D1A3
:101B5000606910B16069012800D104E040F287118A
:101B60006DA002F0FBFC6069A8B101207B49086010
:101B7000FFF7AEFA054606E0FFF7AAFA401B642815
:101B800001D9032014E773486C300068C0F34000AB
:101B90000028F1D014E0002070490860FFF798FA9F
:101BA000054606E0FFF794FA401B642801D903209C
:101BB000FEE668486C300068C0F340000028F1D1B0
:101BC000207800F0040004287BD1A06828B1A06828
:101BD000012802D0A068052800D104E040F2B1112C
:101BE0004DA002F0BBFC00BF5A483830006840F0FE
:101BF00080505849383108600846006800F080502D
:101C0000009000BF00BF5648006840F480705449FF
:101C10000860FFF75DFA054606E0FFF759FA401B3A
:101C2000642801D90320C3E64D48006800F48070A1
:101C30000028F2D00020474968310870FFF748FAC1
:101C4000054608E0FFF744FA401B41F2883188421C
:101C500001D90320ACE63F4868300068C0F340007B
:101C60000028EFD1207A3B4968310870A068A0B104
:101C7000FFF72EFA054608E0FFF72AFA401B41F26B
:101C80008831884201D9032092E6324868300068E2
:101C9000C0F340000028EFD013E0FFF719FA054623
:101CA00008E0FFF715FA401B41F28831884201D95C
:101CB00003207DE6274868300068C0F34000002814
:101CC000EFD1A06928B1A069012802D0A06902283B
:101CD00000D104E040F2F5110FA002F03FFCA06932
:101CE00000287AD01B48006800F00C00082875D046
:101CF000A069022873D1E06918B1E069B0F5800FDE
:101D000000D104E04FF4FF7103A002F027FC206A29
:101D10003F2827D82CE000002E2E5C2E2E5C44722B
:101D200069766572735C53544D3332463478785F0C
:101D300048414C5F4472697665725C5372635C73B0
:101D4000746D3332663478785F68616C5F72636398
:101D50002E6300000838024000004742800E4742D0
:101D60000070004040F2FF11AFF2540002F0F6FBA9
:101D7000606AC02804D3606AB0F5D87F00D805E057
:101D80004FF40071AFF2700002F0E8FBA06A022885
:101D900008D0A06A042805D0A06A062802D0A06A4C
:101DA000082800D105E040F20121AFF2940002F0D2
:101DB000D5FBE06A042803D3E06A0F2800D805E0C9
:101DC00040F20221AFF2B00002F0C8FB002034491B
:101DD0000866FFF77DF9054609E05EE05BE045E057
:101DE000FFF776F9401B642801D90320E0E52D4870
:101DF0000068C0F340600028F2D1D4E9070108432D
:101E000047F6C07292FAA2F2B2FA82F2616A914087
:101E100008430122A16AC2EB51014FF4403292FA09
:101E2000A2F2B2FA82F2914008434FF0706292FA45
:101E3000A2F2B2FA82F2E16A914008431949091DFF
:101E40000860012016490866FFF742F9054606E0DA
:101E5000FFF73EF9401B642801D90320A8E511488B
:101E60000068C0F340600028F2D016E000200C4962
:101E70000866FFF72DF9054606E0FFF729F9401B34
:101E8000642801D9032093E506480068C0F3406048
:101E90000028F2D101E001208AE5002088E5000059
:101EA000000047420038024010B504460CB901203A
:101EB00010BD606818B16068B0F5827F00D103E0A2
:101EC000B82162A002F04AFBA06838B1A068B0F562
:101ED000806F03D0A068B0F5004F00D103E0B921B6
:101EE0005AA002F03BFBE068B0F5006F01D0E0685B
:101EF00000B903E0BA2155A002F030FB206910B10F
:101F00002069022800D103E0BB2150A002F026FB8B
:101F1000606910B16069012800D103E0BC214BA0C9
:101F200002F01CFBA069B0F5007F05D0A06918B1D4
:101F3000A069B0F5802F00D103E0BD2143A002F0DD
:101F40000DFBE069A0B1E069082811D0E069102814
:101F50000ED0E06918280BD0E069202808D0E0698D
:101F6000282805D0E069302802D0E069382800D15F
:101F700003E0BE2135A002F0F1FA206A10B1206A18
:101F8000802800D103E0BF2130A002F0E7FA606AA8
:101F900010B1606A102800D103E0C0212BA002F02C
:101FA000DDFAA06A18B1A06AB0F5005F00D103E0C5
:101FB000C12126A002F0D2FAE06A20B1E06AB0F5B1
:101FC000803F00D203E0C22120A002F0C7FA94F8BB
:101FD000510028B9002084F85000204600F054F841
:101FE000022084F851002068006820F04000216839
:101FF0000860D4E901010843E16808432169084306
:1020000061690843218B01F400710843E1690843C9
:10201000216A0843A16A0843216808600421A06975
:1020200001EA1040616A0843216848602168E06A5B
:1020300008612068C06920F400602168C861002040
:102040006065012084F85100002031E72E2E5C2EBF
:102050002E5C447269766572735C53544D3332461C
:102060003478785F48414C5F4472697665725C539E
:1020700072635C73746D3332663478785F68616C58
:102080005F7370692E63000010B586B004463F4947
:102090002068884247D100BF3D48006840F00100F9
:1020A0003B4908600846006800F00100009000BF4E
:1020B00000BF00BF0846006840F002000860084604
:1020C000006800F00200009000BF00BF00BF304871
:1020D0001430006840F480502D49143108600846DF
:1020E000006800F48050009000BF00BFC020019045
:1020F0000220029000200390032004900520059008
:1021000001A92448FEF79EFD0820019002200290BC
:1021100000200390032004900520059001A91E488B
:10212000FEF790FD30E01D49206888422CD100BFA9
:102130001748006840F0020015490860084600682A
:1021400000F00200009000BF00BF00BF1048103038
:10215000006840F480400E4910310860084600686D
:1021600000F48040009000BF00BF4FF46040019039
:102170000220029000200390032004900520059087
:1021800001A90548FEF75EFD06B010BD0030014014
:102190003038024000000240000402400038004095
:1021A0002DE9F84F04460E4617461D46DDF82890E7
:1021B0004FF00008C24694F85180B8F1010F02D0E8
:1021C000B8F1220F73D10EB107B115B90120BDE8E6
:1021D000F88FA06800B904E04FF42671C9A002F09E
:1021E000BDF900BF94F85000012801D10220EEE7AC
:1021F000012084F8500000BF94F85100012802D15A
:10220000322084F8510000206065A763A587E58728
:102210002663A586E586A064E064A06AB0F5005F49
:102220000DD100BF2068006820F4005021680860CC
:102230002068006840F400502168086000BF2068F2
:10224000006800F04000402805D02068006840F099
:10225000400021680860E068B0F5006F75D16068E3
:1022600030B16068B0F5827F0CD1E08E012809D1D1
:10227000206B00882168C860206B801C2063E08E82
:10228000401EE086E08EF0B9A06AB0F5005F05D18F
:102290002068006840F48050216808604B460022A6
:1022A0000121204601F060FB10B103208FE726E1F9
:1022B0002068C068A16B0880A06B801CA063E08FC1
:1022C000401EE087C6E031E04B4600220221204656
:1022D00001F04AFB08B1032079E7206B00882168F0
:1022E000C860206B801C2063E08E401EE086E08E7C
:1022F00048B9A06AB0F5005F05D12068006840F4D5
:102300008050216808604B4600220121204601F0E0
:102310002BFB08B103205AE72068C068A16B088036
:10232000A06B801CA063E08F401EE087E08E002839
:10233000CADC60680028C5D14B4600220121204636
:1023400001F012FB10B1032041E70AE02068C068E9
:10235000A16B0880A06B801CA063E08F401EE0870B
:1023600078E0606830B16068B0F5827F0BD1E08EB4
:10237000012808D1216B481C206308782168C860B7
:10238000E08E401EE086E08ED0B9A06AB0F5005F16
:1023900005D12068006840F48050216808604B46F1
:1023A00000220121204601F0DFFA08B103200EE7E8
:1023B0002068C068A16B0870E08F401EE08749E08C
:1023C00030E04B4600220221204601F0CDFA08B150
:1023D0000320FCE6216B481C206308782168C86054
:1023E000E08E401EE086E08E48B9A06AB0F5005F3E
:1023F00005D12068006840F48050216808604B4691
:1024000000220121204601F0AFFA08B10320DEE6E8
:102410002068C068C1B2A26B501CA0631170E08F2D
:10242000401EE087E08E0028CBDC606890B94B4608
:1024300000220121204601F097FA08B10320C6E6E8
:102440002068C068C1B2A26B501CA0631170E08FFD
:10245000401EE087A06AB0F5005F12D14B46002213
:102460000121204601F080FA28B1606D40F00200A1
:1024700060650320ABE62068C06880B20090BDF8BC
:1024800000004B4601228021204601F06DFA28B160
:10249000606D40F020006065032098E6012084F81C
:1024A000510020688068C0F3001AA06AB0F5005F90
:1024B0001FD1BAF1000F1CD0606D40F002006065C2
:1024C000A06AB0F5005F0DD100BF2068006820F45D
:1024D0000050216808602068006840F400502168BE
:1024E000086000BF00BF002084F8500000BF01203A
:1024F0006DE600BF002084F8500000BF67E60220B0
:1025000065E600002E2E5C2E2E5C447269766572A4
:10251000735C53544D3332463478785F48414C5F96
:102520004472697665725C5372635C73746D3332A6
:10253000663478785F68616C5F7370692E63000041
:10254000704770B504462546681EB0F1807F01D300
:1025500001200FE0681E4FF0E02148610F214FF08D
:10256000FF3001F0EDF900204FF0E02188610720F5
:102570000861002070BD10B5FFF7E2FF10BD704785
:10258000F8B50446002500262068006800F0010523
:102590002068C06800F480766DB166B100BF206825
:1025A0000068009020684068009000BF00BFE06BAA
:1025B00040F00100E06320680068C0F34005206837
:1025C000406900F001066DB166B100BF2068006887
:1025D000009020684068009000BF00BFE06B40F0B2
:1025E0000400E06320680068C0F38005206840694B
:1025F00000F001066DB166B100BF20680068009070
:1026000020684068009000BF00BFE06B40F002000F
:10261000E06320680068C0F3C0052068406900F0EE
:1026200001066DB166B100BF2068006800902068A7
:102630004068009000BF00BFE06B40F00800E0631E
:1026400020680068C0F340152068C06800F02006CC
:102650001DB116B1204601F05BFB20680068C0F395
:10266000C0152068C06800F080061DB116B1204674
:1026700001F010FD20680068C0F380152068C06874
:1026800000F040061DB116B1204601F01DFBE06BC5
:1026900028B1012084F839002046FFF770FFF8BD0B
:1026A00010B504460CB9012010BDA069002824D043
:1026B0003E492068884207D03D492068884203D0BF
:1026C0003C492068884200D103E0FC213AA001F097
:1026D00045FFA06958B1A069B0F5807F07D0A06917
:1026E000B0F5007F03D0A069B0F5407F00D116E0BF
:1026F000FD2131A001F032FF11E02C492068884211
:1027000007D02B492068884203D02A492068884294
:1027100000D104E040F2011127A001F01FFFA068E2
:1027200018B1A068B0F5805F00D104E040F2031159
:1027300021A001F013FFE06918B1E069B0F5004F86
:1027400000D104E04FF482711BA001F007FF94F860
:10275000390028B9002084F83800204600F04AF8F3
:10276000022084F839002068C06820F400502168F5
:10277000C860204601F02AFB2068006920F49040E0
:10278000216808612068406920F02A0021684861BA
:102790002068C06840F400502168C8600020E063F1
:1027A000012084F8390000207EE70000001001407D
:1027B00000440040001401402E2E5C2E2E5C44721A
:1027C00069766572735C53544D3332463478785F62
:1027D00048414C5F4472697665725C5372635C7306
:1027E000746D3332663478785F68616C5F756172DE
:1027F000742E630010B586B004461D4920688842D7
:1028000033D100BF1B48006840F00100194908603F
:102810000846006800F00100009000BF00BF00BF44
:1028200014481030006840F400301249103108603C
:102830000846006800F40030009000BF00BF0C2084
:1028400001900220029000200390032004900720B2
:10285000059001A90848FEF7F5F900221146262047
:10286000FEF7EAFC2620FEF7B1FC06B010BD000022
:1028700000440040303802400000024070472DE91B
:10288000F04704460D46164699464FF0000894F866
:102890003980B8F1010F02D0B8F1220F65D105B12E
:1028A00016B90120BDE8F08700BF94F83800012870
:1028B00001D10220F6E7012084F8380000BF002093
:1028C000E06394F83900222803D1322084F83900DB
:1028D00002E0122084F83900A684E68428E0E08C27
:1028E000401EE084A068B0F5805F14D14B46002202
:1028F0008021204601F006FC08B10320D2E72F46D4
:102900003888C0F3080021684860206908B9AD1C08
:102910000EE06D1C0CE04B4600228021204601F0A9
:10292000F1FB08B10320BDE715F8010B21684860F1
:10293000E08C0028D3DC4B4600224021204601F0E9
:10294000E1FB08B10320ADE794F83900322803D148
:10295000222084F8390002E0012084F8390000BF09
:10296000002084F8380000BF9CE702209AE77047F7
:1029700010B51DA1244801F023FD01F089FCFEF7EC
:102980000BF82249086000202149087020E0204807
:102990000078FDF7E1FF0446FDF7BAFC1D49086029
:1029A0001B480078400000EB400101EBC0001749D4
:1029B000096801EBC00018490860164800684168C2
:1029C00015480068884712480078401C1049087074
:1029D0000F4800780128DADB10A10B4801F0F0FC69
:1029E00001F056FC10BD0000496E697469616C20ED
:1029F00076616C75657320666F72207265676973A6
:102A0000746572733A0A0D00C80400209C0300200C
:102A10009003002098030020A003002043757374E6
:102A20006F6D2076616C75657320666F72207265BC
:102A3000676973746572733A0A0D000070B50546D4
:102A40000C4600261821284600F0F2F9354909689D
:102A500008800F2C62D2DFE804F0080E141A20263A
:102A60002C32383E444A50565C002E4800680078AC
:102A700000F0010652E02B4800680078C0F34006E1
:102A80004CE0284800680078C0F3800646E02548FE
:102A900000680078C0F3C00640E022480068007873
:102AA000C0F300163AE01F4800680078C0F34116F2
:102AB00034E01C4800680078C0F3C0162EE01948C6
:102AC00000680088C0F3002628E0164800680088E7
:102AD000C0F3402622E0134800680088C0F3802637
:102AE0001CE0104800680088C0F3C02616E00D48BE
:102AF00000680088C0F3003610E00A4800680088CB
:102B0000C0F340360AE0074800680088C0F380360A
:102B100004E0044800680088C60B00BF00BF3046D0
:102B200070BD0000A800002070B504460D46383581
:102B300055ED090AB0EE600A00F0A0FFA08355ED44
:102B4000080AB0EE600A00F0B1FFE08355ED070A15
:102B5000B0EE600A01F004F8208455ED060AB0EEEC
:102B6000600A01F015F8608455ED050AB0EE600AC0
:102B700000F0B4FFA08415ED040ADFED7E0A20EE1C
:102B8000200A55ED0E0A80EE201ABCEEC10A10EEA6
:102B9000100AC1B22620015515ED030ADFED750AB2
:102BA00020EE200A55ED0E0A80EE201ABCEEC10A76
:102BB00010EE100AC1B22720015515ED020ADFED13
:102BC0006D0A20EE200A55ED0E0A80EE201ABCEEAA
:102BD000C10A10EE100AC1B22820015515ED010AF4
:102BE000DFED640A20EE200A55ED0E0A80EE201A71
:102BF000BCEEC10A10EE100AC1B229200155D5ED74
:102C0000000AB0EE600A00F093FF6085D5ED010A7E
:102C1000B0EE600A01F040FE84F82C00D5ED020A07
:102C2000B0EE600A01F008FE84F82D00D5ED030A2D
:102C3000B0EE600A01F018FE84F82E00297C84F8BA
:102C40002F10D5ED050AB0EE600A01F089FC84F87A
:102C50003100D5ED060AB0EE600A01F0B3FC84F84D
:102C60003200297F84F83310697F84F83410E98BAF
:102C7000383DE186A28B2078A1680B680421984733
:102C8000E28B2078A1680B6805219847228C207878
:102C9000A1680B6806219847628C2078A1680B68B0
:102CA00007219847A28C2078A1680B6808219847D3
:102CB00026210A5D2078A1680B6809219847272101
:102CC0000A5D2078A1680B680A21984728210A5DCF
:102CD0002078A1680B680B21984729210A5D20788C
:102CE000A1680B680C219847628D2078A1680B6859
:102CF0000D21984794F82C202078A1680B680E21AC
:102D0000984794F82D202078A1680B680F219847E8
:102D100094F82E202078A1680B681021984794F829
:102D20002F202078A1680B681121984794F8312052
:102D30002078A1680B681321984794F832202078F6
:102D4000A1680B681421984794F833202078A16873
:102D50000B681521984794F834202078A1680B68F7
:102D600016219847E28E2078A1680B6817219847B2
:102D700070BD000000008043F8B505460E460020F7
:102D800016490870002425E0154A11895068002270
:102D9000FEF764F90A2006EB440205EB4401022326
:102DA00000901048FFF7FCF90D4A11895068012284
:102DB000FEF754F900200C49087005E000BF0A48EE
:102DC0000078401C08490870074800781428F5DB93
:102DD000601CC4B2042CD7DBF8BD0000A4000020A6
:102DE000C803002018040020AC00002070B5034682
:102DF0000C460020012108E004EB4105ED5C561A69
:102E0000F600B54028434D1CE9B20329F4DD70BD3E
:102E100070B5DDE9044501EB0016327001EB0016D8
:102E2000736001EB0016B46001EB0016F56070BD35
:102E30002DE9FC4105460C46002000902346022265
:102E40000D490190284600F04DF90C490A4800F060
:102E500067F90B490948FFF78FFF04EB8400094924
:102E600001EB8000867B324605492846FFF7BEFF0E
:102E700007463846BDE8FC81A803002094000020E6
:102E80009C0000200C4900080146192906DA01EBD4
:102E90008100034A02EB8000401C704701A0FCE760
:102EA0000C490008000000007CB50446002000909A
:102EB000034612220A490190204600F013F90949FD
:102EC000074800F02DF908490648FFF755FF022290
:102ED00005492046FFF78AFF85B228467CBD0000E1
:102EE000A8030020940000209C0000201CB504468C
:102EF0000020009003460A2206490190204600F077
:102F0000F1F80549034800F00BF904490248FFF7BE
:102F100033FF1CBDA8030020940000209C0000206B
:102F20001CB504460020009003460B220649019080
:102F3000204600F0D7F80549034800F0F1F80449AD
:102F40000248FFF719FF1CBDA803002094000020D1
:102F50009C0000207CB505460C46B4F5800F10D2CD
:102F6000002000902346062206490190284600F0E2
:102F7000B9F80549034800F0D3F804490248FFF7BF
:102F8000FBFE7CBDA8030020940000209C000020D4
:102F90007CB506460D461446B4F5800F10D20020CD
:102FA0002B4607220749CDE90040304600F09AF849
:102FB0000549044800F0B4F804490348FFF7DCFE73
:102FC0007CBD0000A8030020940000209C0000208D
:102FD0002DE9FC4107460C4615461E4623460822AD
:102FE00007493846CDE9005600F07CF80549044809
:102FF00000F096F804490348FFF7BEFEBDE8FC81E7
:10300000A8030020940000209C0000201CB504466A
:10301000002000900346112206490190204600F04E
:1030200061F80549034800F07BF804490248FFF7BE
:10303000A3FE1CBDA8030020940000209C000020DB
:103040001CB504460020009003460F22064901905B
:10305000204600F047F80549034800F061F80449AC
:103060000248FFF789FE1CBDA80300209400002041
:103070009C000020014619B1002903DD022901DA74
:1030800008467047FF20FCE77CB506460C4615460F
:103090000020234605220749CDE90050304600F0C4
:1030A00021F80549034800F03BF804490248FFF7BE
:1030B00063FE7CBDA8030020940000209C0000203B
:1030C00010B50549054800F02BF805490248FFF7FF
:1030D00053FE034810BD000094000020A803002008
:1030E0009C0000202DE9FC4305460C4616461F4671
:1030F000DDE909890948007828B9012007490870E5
:10310000204600F07BFA3B46324621462846CDE970
:103110000089FFF77DFEBDE8FC830000A4000020CD
:10312000F0B503460A46002500210EE0002008E025
:103130004FF0000C2E466F1CFDB202F806C0461C74
:10314000F0B20228F4DB4E1CF1B20429EEDB0020C1
:103150001DE103EB00163678C6EBC6068E4F07EB73
:103160004606367B165403EB00163678132E0BD228
:10317000DFE806F00A0B313E5B688596B3DDFEFDA5
:10318000FCFBFAF9F8F7F600FEE0165C03EB00171B
:103190007F6807EB8707DFF804C21CF827703E43FF
:1031A000165403EB0016766806EB8606674607EBB7
:1031B0008606B47B01210AE003EB0016B668671AA5
:1031C000FF00FE4000EB4107D6554E1CF1B2661CD5
:1031D000B142F1DBD8E0165C03EB00177F6807EB28
:1031E0008707DFF8B8C11CF827703E431654CBE0C0
:1031F000165C03EB00177F6807EBC707DFF8A0C179
:1032000067443F7A3E43165401210BE003EB00165E
:10321000B668C1F10307FF00FE4000EB4107D65539
:103220004E1CF1B20429F1DBAEE0165C03EB001793
:103230007F6807EBC707DFF868C167443F7A3E4302
:103240001654A1E0165C03EB00177F6807EBC70775
:10325000DFF84CC167443F7A3E43165401210BE02E
:1032600003EB0016B668C1F10307FF00FE4000EB58
:103270004107D6554E1CF1B20429F1DB84E001214F
:103280000BE003EB00167668C1F10307FF00FE4078
:1032900000EB4107D6554E1CF1B20429F1DB73E077
:1032A000165C03EB00177F6807EBC707DFF8F0C079
:1032B00067443F7A3E43165401210BE003EB0016AE
:1032C000B668C1F10307FF00FE4000EB4107D65589
:1032D0004E1CF1B20429F1DB56E0165C03EB00173B
:1032E0007F6807EB8707DFF8BCC067443F7946EA91
:1032F000C7061654165C03EB0017BF6807EBC70739
:10330000DFF89CC067443F7A3E43165401210BE02E
:1033100003EB0016F668C1F10307FF00FE4000EB67
:103320004107D6554E1CF1B20429F1DB2CE0165CA6
:1033300003EB00177F6807EB8707DFF868C0674477
:103340003F7946EAC7061654165C03EB0017BF68C0
:1033500007EBC707DFF848C067443F7A3E4308E001
:1033600011E00FE00DE00BE009E007E005E003E00D
:1033700001E0165408E007E006E005E004E003E0A1
:1033800002E001E000E000BF00BF461CF0B20228EE
:10339000FFF6DFAEF0BD0000004B00080C4900084E
:1033A0000A4C00081C4C00083CB505460C460020A1
:1033B000009023460222034901902846FFF792FE1F
:1033C0003CBD0000A80300201CB50446002000906E
:1033D00003461222024901902046FFF783FE1CBDDE
:1033E000A80300201CB504460020009003460A22D2
:1033F000024901902046FFF775FE1CBDA80300207E
:103400001CB504460020009003460B22024901909F
:103410002046FFF767FE1CBDA80300203CB505460B
:103420000C460020009023460622034901902846BE
:10343000FFF758FE3CBD0000A80300207CB50646FF
:103440000C4615460020234607220349CDE90050CB
:103450003046FFF747FE7CBDA8030020FCB50746B9
:103460000C4615461E462346082203493846CDE938
:103470000056FFF737FEFCBDA80300201CB504462C
:103480000020009003461122024901902046FFF7D8
:1034900029FE1CBDA80300201CB504460020009096
:1034A00003460F22024901902046FFF71BFE1CBD78
:1034B000A80300207CB506460C461546002023468E
:1034C00005220349CDE900503046FFF70BFE7CBDD5
:1034D000A80300207CB506460C461546002023466E
:1034E00009220349CDE900503046FFF7FBFD7CBDC2
:1034F000A80300201CB504460020009003460D22BE
:10350000024901902046FFF7EDFD1CBDA8030020F5
:103510001CB504460020009003460C22024901908D
:103520002046FFF7DFFD1CBDA80300207CB5064642
:103530000C4615460020234603220349CDE90050DE
:103540003046FFF7CFFD7CBDA80300207CB50646C2
:103550000C4615460020234601220349CDE90050C0
:103560003046FFF7BFFD7CBDA80300201CB5044614
:103570000020009003461022024901902046FFF7E8
:10358000B1FD1CBDA80300201CB50446002000901E
:1035900003460E22024901902046FFF7A3FD1CBD01
:1035A000A80300203CB505460C46002000902346A9
:1035B0000422034901902846FFF794FD3CBD00001A
:1035C000A80300207CB506460C461546002023467D
:1035D00009220749CDE900503046FFF783FD054930
:1035E0000348FFF79DFD04490248FFF7C5FB7CBD7A
:1035F000A8030020940000209C0000200146002029
:103600000EE0002201EB00131A7001EB00135A6068
:1036100001EB00139A6001EB0013DA60421CD0B298
:103620000228EEDB704700001CB504460020009025
:1036300003460D22064901902046FFF753FD054938
:103640000348FFF76DFD04490248FFF795FB1CBDD9
:10365000A8030020940000209C0000201CB5044614
:103660000020009003460C22064901902046FFF7F7
:1036700039FD05490348FFF753FD04490248FFF7A8
:103680007BFB1CBDA8030020940000209C000020B0
:103690007CB506460C461546002023460322074902
:1036A000CDE900503046FFF71DFD05490348FFF7FF
:1036B00037FD04490248FFF75FFB7CBDA8030020EB
:1036C000940000209C0000207CB506460C46154660
:1036D0000020234601220749CDE900503046FFF77C
:1036E00001FD05490348FFF71BFD04490248FFF7A8
:1036F00043FB7CBDA8030020940000209C00002018
:103700001CB5044600200090034610220649019093
:103710002046FFF7E7FC05490348FFF701FD044990
:103720000248FFF729FB1CBDA803002094000020DD
:103730009C0000201CB504460020009003460E2289
:10374000064901902046FFF7CDFC05490348FFF7E5
:10375000E7FC04490248FFF70FFB1CBDA80300204B
:10376000940000209C0000207CB505460C460020FB
:10377000009023460422074901902846FFF7B2FC37
:1037800005490448FFF7CCFC04490348FFF7F4FA65
:103790007CBD0000A8030020940000209C000020B5
:1037A00000B585B000BF0B48006840F00200094931
:1037B00008600846006800F00200009000BF00BFEB
:1037C000082001900120029001A90348FDF7E8F8C4
:1037D00005B000BD30380240D403002010B50121EF
:1037E0000020FDF749F80020FCF772FF10BD000033
:1037F00070B52148214908604FF48270486000216B
:103800001E488160C16002210161012141614902BC
:1038100081610021016241628162FEF71BF8064668
:103820001748B6FBF0F085B2022D01DA00241DE046
:10383000042D01DA082419E0082D01DA102415E01E
:10384000102D01DA182411E0202D01DA20240DE0DA
:10385000402D01DA282409E0802D01DA302405E02A
:10386000FF2D01DC382401E000BFFEE70348C461FE
:10387000FEF71AFB70BD0000003001401804002064
:10388000404B4C0010B5FFF7B3FF10BD10B5094811
:10389000094908604FF4E130486000210648816022
:1038A000C16001610C21416100218161C161FEF7AC
:1038B000F7FE10BD00440040C804002010B541F2DE
:1038C0008831012000F058FF41F28830FDF782F97D
:1038D00041F28831012000F04FFF41F28830FDF7BE
:1038E00079F941F28831002000F046FF41F288303A
:1038F000FDF770F941F28831002000F03DFF41F200
:103900008830FDF767F910BD10B5FDF7EFFB00F04B
:103910005DF9FFF763FFFFF7B5FFFFF7B7FF40F271
:10392000EE21032000F0F2FDFFF73AFF10BD00008A
:1039300002480068C0F30220704700000CED00E070
:1039400010B5002807DA0A07140E054A00F00F0325
:103950001B1FD45403E00A07130E024A135410BD70
:1039600018ED00E000E400E02DE9F04104460E46C9
:1039700017461D464FF00008FDF7AAFB8046002FB2
:103980003ED132E0681C78B32DB1FDF7A1FBA0EB6E
:103990000800A84229D92068406820F0E00021688A
:1039A00048602068006820F0400021680860A06A34
:1039B000B0F5005F0DD100BF2068006820F4005012
:1039C000216808602068006840F4005021680860A1
:1039D00000BF012084F8510000BF002084F850008F
:1039E00000BF0320BDE8F081FFE720688068304019
:1039F000B04201D1012000E000200028C2D03BE00D
:103A000030E0681C70B32DB1FDF762FBA0EB08003D
:103A1000A84227D92068406820F0E000216848606B
:103A20002068006820F0400021680860A06AB0F5B6
:103A3000005F0DD100BF2068006820F400502168AD
:103A400008602068006840F400502168086000BFEA
:103A5000012084F8510000BF002084F8500000BF0E
:103A60000320BFE7206880683040B04201D10120C8
:103A700000E000200028C4D10020B3E7DFED090AF0
:103A8000B4EEE00AF1EE10FA09D8DFED070A80EE95
:103A9000201AFCEEC10A10EE900A80B27047002096
:103AA000FCE7000071C66847FED46841DFED090AF3
:103AB000B4EEE00AF1EE10FA09D8DFED070A80EE65
:103AC000201AFCEEC10A10EE900A80B27047002066
:103AD000FCE7000071C66847FED4684110B52DEDC3
:103AE000048BB0EE408A18EE100AFCF76FFB41EC35
:103AF000190B9FED0C0B53EC102BFCF77BFB0FD835
:103B0000DFED0A0A88EE200AF6EE000A30EE600ABF
:103B1000BCEEC00A10EE100A80B2BDEC048B10BDE2
:103B20000020FAE700000000307CCE400000744125
:103B3000DFED090AB4EEE00AF1EE10FA09D8DFED84
:103B4000070A80EE201AFCEEC10A10EE900A80B23D
:103B500070470020FCE7000023207444F423743DE8
:103B6000DFED090AB4EEE00AF1EE10FA09D8DFED54
:103B7000070A80EE201AFCEEC10A10EE900A80B20D
:103B800070470020FCE7000002E773460B247441F5
:103B9000DFED090AB4EEE00AF1EE10FA09D8DFED24
:103BA000070A80EE201AFCEEC10A10EE900A80B2DD
:103BB00070470020FCE70000BF1474440124743EE9
:103BC00010B5FDF78BFAFEF7D6FC10BD00B593B02B
:103BD00000BF2248006840F0805020490860084635
:103BE000006800F08050019000BF00BF00BF1C487B
:103BF000006820F4404040F400401949086008463D
:103C0000006800F44040019000BF00BF0220079010
:103C100001200A9010200B9002200D9000210E919F
:103C200010210F914FF4A8711091042111910721D7
:103C3000129107A8FDF77EFE052002900220039056
:103C4000002004904FF4805005900020069002213F
:103C500002A8FDF7A3FB13B000BD000040380240EE
:103C6000007000401448006840F470001249086079
:103C70001248006840F001001049086000200F4918
:103C8000083108600D4800680D4908400B4908607C
:103C90000C48091D0860081F006820F48020091FD7
:103CA0000860002005490C3108604FF000600249AF
:103CB000803908607047000088ED00E0003802405D
:103CC000FFFFF6FE1030002410B504462068C068DF
:103CD00020F040002168C86094F83900322803D1F0
:103CE000222084F839000EE02068C06820F480703B
:103CF0002168C8602068406920F00100216848619F
:103D0000012084F839002046FEF731FE002010BD66
:103D100070B50446002694F83960222E01D0322E68
:103D200052D1A068B0F5805F13D1A56A206940B96F
:103D300020684068C0F308002880A06A801CA06248
:103D400019E020684068C0B22880A06A401CA062C8
:103D500011E0206938B920684068C1B2A26A501CDD
:103D6000A062117007E02068406800F07F01A26A3D
:103D7000501CA0621170E08D401E80B2E08508BB2F
:103D80002068C06820F020002168C86094F83900DD
:103D9000322803D1122084F839000EE02068C06870
:103DA00020F480702168C8602068406920F001001C
:103DB00021684861012084F839002046FEF75EFD45
:103DC000002070BD0020FCE70220FAE72DE9F04159
:103DD000044600259D496068884200D204E040F214
:103DE00036719BA000F0BAFBE06818B1E068B0F54E
:103DF000005F00D104E040F2377195A000F0AEFB07
:103E0000206938B12069B0F5806F03D02069B0F522
:103E1000C06F00D104E04FF4E7618DA000F09EFB7D
:103E20004FF6F3716069084010B9606900B104E0B1
:103E300040F2397186A000F091FB2068056925F4F5
:103E40004055E0680543206805612068C56849F26F
:103E50000C6085432169A068084361690843E169F2
:103E6000084305432068C5602068456925F440750E
:103E7000A069054320684561E069B0F5004F72D143
:103E800082492068884203D081492068884234D121
:103E9000FDF7E0FC00EBC00101EB00106168490098
:103EA000B0FBF1F06421B0FBF1F6FDF7D3FC00EBC1
:103EB000C00101EB001061684900B0FBF1F7FDF7AC
:103EC000C9FC00EBC00101EB001061684900B0FBC8
:103ED000F1F06421B0FBF1F000EBC00101EB001048
:103EE000A7EB8000322101EB00106421B0FBF1F060
:103EF00066F31F1021688860A6E0FDF795FC00EBD3
:103F0000C00101EB001061684900B0FBF1F06421D1
:103F1000B0FBF1F6FDF788FC00EBC00101EB0010EF
:103F200061684900B0FBF1F7FDF77EFC00EBC001D2
:103F300001EB001061684900B0FBF1F06421B0FBB7
:103F4000F1F000EBC00101EB0010A7EB8000322183
:103F500001EB00106421B0FBF1F066F31F10216843
:103F6000886071E0FFE749492068884203D04849EA
:103F70002068884234D1FDF76DFC00EBC00101EBF5
:103F8000001061688900B0FBF1F06421B0FBF1F62C
:103F9000FDF760FC00EBC00101EB001061688900D7
:103FA000B0FBF1F7FDF756FC00EBC00101EB001090
:103FB00061688900B0FBF1F06421B0FBF1F000EB27
:103FC000C00101EB0010A7EB8000322101EB0010D3
:103FD0006421B0FBF1F066F31F102168886033E0C4
:103FE000FDF722FC00EBC00101EB001061688900C5
:103FF000B0FBF1F06421B0FBF1F6FDF715FC00EB2E
:10400000C00101EB001061688900B0FBF1F7FDF71A
:104010000BFC00EBC00101EB001061688900B0FBF4
:10402000F1F06421B0FBF1F000EBC00101EB0010F6
:10403000A7EB8000322101EB00106421B0FBF1F00E
:1040400066F31F1021688860BDE8F081A137A000E9
:104050002E2E5C2E2E5C447269766572735C53540E
:104060004D3332463478785F48414C5F447269760C
:1040700065725C5372635C73746D33326634787846
:104080005F68616C5F756172742E6300001001409F
:104090000014014010B50146002391F83930122B6D
:1040A00001D0322B2CD18868B0F5805F0FD10A6A1D
:1040B0001088C0F308000C686060086918B9086AC5
:1040C000801C086209E0086A401C086205E00C6A6E
:1040D000601C086220780C686060C88C401E80B24A
:1040E000C88458B90868C06820F080000C68E06097
:1040F0000868C06840F040000C68E060002010BD17
:104100000220FCE72DE9F04104460E4617461D4605
:104110004FF00008FCF7DCFF80469FBB2BE0681CDB
:1041200048B32DB1FCF7D4FFA0EB0800A84222D978
:104130002068C06820F080002168C8602068C068DE
:1041400020F020002168C8602068C06820F48070DA
:104150002168C8602068406920F00100216848613A
:10416000012084F8390000BF002084F8380000BF27
:104170000320BDE8F081206800683040B04202D1E1
:10418000012001E003E000200028C8D035E02AE04B
:10419000681C40B32DB1FCF79BFFA0EB0800A842C0
:1041A00021D92068C06820F080002168C86020689C
:1041B000C06820F020002168C8602068C06820F432
:1041C00080702168C8602068406920F00100216883
:1041D0004861012084F8390000BF002084F83800CD
:1041E00000BF0320C5E7206800683040B04201D11D
:1041F000012000E000200028CAD10020B9E700001B
:1042000010B50348FEF7BCF9014800F003F810BDF3
:10421000C804002070B5044620684068C5B2E08D2F
:10422000012801D00D2D30D1E08D401CE085A06A21
:10423000401EA0620020A16A087014A1204600F070
:10424000BFF800BF2068006800F020000028F9D106
:104250002068C06820F020002168C86094F8390008
:10426000322803D1122084F839000EE02068C0689B
:1042700020F480702168C8602068406920F0010047
:1042800021684861012084F8390070BD0A0D0000E2
:1042900070B50020FCF760FB044611E00020FEF73B
:1042A000E9FE054605E02946204600F00FF8681CA7
:1042B000C5B20120FEF7DEFEA842F4DA601CC4B2EB
:1042C0000020FCF749FBA042E8DA70BD2DE9F0417F
:1042D00006460D463046FCF71DFB002849D026A1B6
:1042E000264800F06DF826A1244800F069F8002166
:1042F000284600F007FA80464146204800F060F862
:1043000028A11E4800F05CF80021304600F0FAF9C0
:1043100080464146194800F053F826A1174800F09E
:104320004FF800241FE021462846FEF781FD07468E
:104330002046FEF7A9FD80464146104800F040F8AF
:104340001EA10E4800F03CF80321384600F0DAF9CF
:1043500080464146094800F033F807A1074800F0BD
:104360002FF8601CC4B2192CDDDB03A1034800F058
:1043700027F8BDE8F08100000A0D0000C804002005
:1043800056616C756573206F662074686520726570
:1043900067697374657273206F66204C36343730EA
:1043A0005F230000206F66204578704272645F23AF
:1043B000000000000A0D0A0D000000003A20000075
:1043C00070B506460D46002400BF2046611CCCB2E5
:1043D000285C0028F9D1601EC4B20A23224629466F
:1043E0003046FEF74CFA70BD10B512A11248FFF727
:1043F000E7FF12A11048FFF7E3FF15A10E48FFF7F2
:10440000DFFF1FA10C48FFF7DBFF29A10A48FFF7D8
:10441000D7FF2BA10848FFF7D3FF2DA10648FFF7D0
:10442000CFFF2CA10448FFF7CBFF30A10248FFF7D4
:10443000C7FF10BD0A0D0000C804002020582D4EF3
:1044400055434C454F2D49484D303241310A0D00FE
:10445000202D2D2D2D2D2D2D2D2D2D2D2D2D2D2D99
:104460002D2D2D2D2D2D2D2D2D2D2D2D2D2D2D2D7C
:104470002D2D2D2D2D2D2D2D2D2D2D2D0A0D000009
:10448000204475616C204C3634373020457870619B
:104490006E73696F6E20426F61726420666F722066
:1044A00053544D3332204E55434C454F0A0D0000B6
:1044B00020537461636B6564206F6E200000000000
:1044C0004E55434C454F2D46343031524500000087
:1044D000200A0D0020582D435542452D53504E3291
:1044E0002076312E302E300A0D0000002053544D1E
:1044F0006963726F656C656374726F6E6963732C48
:1045000020323031350A0D0A0D0000002DE9F0414E
:1045100004460D466F1000260DE00020FCF71CF944
:104520003846FCF757FB0020FCF706F93846FCF745
:1045300051FB701CC6B2A642EFDBBDE8F08102E081
:1045400008C8121F08C1002AFAD17047704700201E
:1045500001E001C1121F002AFBD170477047000023
:10456000F0EE400ADFED151AF4EEE10AF1EE10FA72
:1045700022D8DFED131A80EEA10AFCEEC01A11EE6C
:10458000900AC0B201EE900AF8EE611A30EE611A9C
:10459000F6EE001AB4EEE11AF1EE10FA06D2FCEED5
:1045A000C01A11EE900A401EC0B27047FCEEC01A4D
:1045B00011EE900AC0B2F8E70020F6E70080BB4594
:1045C0000080BB43F0EE400ADFED151AF4EEE10A7D
:1045D000F1EE10FA22D8DFED131A80EEA10AFCEEFC
:1045E000C01A11EE900AC0B201EE900AF8EE611AFC
:1045F00030EE611AF6EE001AB4EEE11AF1EE10FA9E
:1046000006D2FCEEC01A11EE900A401EC0B27047EE
:10461000FCEEC01A11EE900AC0B2F8E70020F6E7EF
:1046200000007A450000FA4186B000BFFFF76CF940
:10463000FBF7A6FE1BA12248FFF7C2FEFEF798F982
:1046400020A11F48FFF7BCFE4FF4807001900120AD
:1046500003902348029001A92248FCF7F3FA402076
:104660000190012003901E48029001A91D48FCF70B
:10467000E9FA00220F211720FCF7DEFD1720FCF7D6
:10468000A5FDFCF780F9FFF7AFFE17A10C48FFF777
:1046900097FE17A10A48FFF793FE01E0FFF70EF916
:1046A000FCE70000496E697469616C697A696E673C
:1046B000204D6F746F72732E2E2E0A0D00000000B5
:1046C000C80400204750494F20496E697469616CE5
:1046D000697A6174696F6E2E2E2E0A0D000000003B
:1046E0000000111000040240746573740A0D00008C
:1046F00052756E6E696E672044656D6F2E2E2E0AA0
:104700000D00000070B504460D4635B1012D06D0F0
:10471000022D06D0032D08D105E0012205E002227A
:1047200003E0042201E0082200BF00BF00211AE0DC
:104730000020104E7054501E401A86000F20B040CA
:104740002040561E761AB600F040C3B20A2B04DA97
:1047500003F13000074E705403E003F13700054EBB
:104760007054481CC1B29142E2DB0020014E7054EB
:10477000304670BDC205002070B504460D461EA12E
:104780002248FFF71DFE022121480088FFF7BAFFEB
:10479000064631461D48FFF713FE012C15D11C4873
:1047A00001881C48FCF728FC78B91BA11748FFF7C3
:1047B00007FE1B48006880682B460122866819485E
:1047C000017819480078B04715E0A4B91748018866
:1047D0001048FCF711FC70B915A10C48FFF7F0FD6B
:1047E0000F48006880682B46002286680D480178D3
:1047F0000D480078B04770BD52756E6E696E6720C7
:104800004D6F746F722E0A0D00000000C804002066
:1048100092030020000402404657440A0D000000A5
:10482000980300208F0300208E03002094030020B3
:104830005245560A0D000000DFED090AB4EEE00A09
:10484000F1EE10FA09D8DFED070A80EE201AFCEE2F
:10485000C10A10EE900AC0B270470020FCE70000C9
:10486000D911833B6E958337DFED090AB4EEE00A78
:10487000F1EE10FA09D8DFED070A80EE201AFCEEFF
:10488000C10A10EE900AC0B270470020FCE7000099
:10489000D911833B6E958337DFED090AB4EEE00A48
:1048A000F1EE10FA09D8DFED070A80EE201AFCEECF
:1048B000C10A10EE900AC0B270470020FCE7000069
:1048C000D911833B6E95833710B507A10B48FFF7CD
:1048D00077FD0B4800688068426B0A4801780A48F7
:1048E0000078904710BD000053746F7070696E6758
:1048F000204D6F746F720A0D00000000C804002084
:10490000980300208F0300208E03002001414253B2
:104910005F504F530000000000160300000000002D
:1049200002454C5F504F5300000000000009020098
:1049300000000000034D41524B0000000000000049
:1049400000160300000000000453504545440000D9
:104950000000000000140300000000000541434374
:104960000000000000000000000C02008A000000AF
:10497000064445430000000000000000000C020057
:104980008A000000074D41585F53504545440000E0
:10499000000A020041000000084D494E5F53504597
:1049A00045440000000D0200000000001546535F62
:1049B0005350440000000000000A020027000000DD
:1049C000094B56414C5F484F4C4400000008010021
:1049D000290000000A4B56414C5F52554E00000022
:1049E00000080100290000000B4B56414C5F414379
:1049F0004300000000080100290000000C4B564154
:104A00004C5F4445430000000008010029000000FD
:104A10000D494E545F53504545440000000E0200BE
:104A2000080400000E53545F534C50000000000077
:104A300000080100190000000F464E5F534C505F04
:104A400041434300000801002900000010464E5F6A
:104A5000534C505F4445430000080100290000000A
:104A6000114B5F544845524D000000000004010006
:104A700000000000124144435F4F55540000000005
:104A80000005010000000000134F43445F5448003C
:104A9000000000000004010008000000145354410D
:104AA0004C4C5F544800000000070100400000002B
:104AB00016535445505F4D4F444500000008010017
:104AC0000700000017414C41524D5F454E00000069
:104AD00000080100FF00000018434F4E4649470000
:104AE0000000000000100200882E000019535441FD
:104AF00054555300000000000010020000000000A8
:104B00004E4F500000000000000000000000534520
:104B100054504152414D000000000002474554509E
:104B20004152414D00000000200152554E0000004E
:104B3000000000000000500253544550434C4F43C6
:104B40004B00000058014D4F56450000000000008A
:104B500000004002474F544F0000000000000000DA
:104B60006001474F544F5F44495200000000680203
:104B7000474F554E54494C000000000082035245F7
:104B80004C4541534553570000009202474F484F50
:104B90004D450000000000007000474F4D41524B52
:104BA00000000000000078005245534554504F5318
:104BB00000000000D800524553455444455649432F
:104BC0004500C000534F465453544F50000000005E
:104BD000B0004841524453544F5000000000B80008
:104BE000534F465448495A0000000000A000484175
:104BF000524448495A0000000000A8004745545359
:104C00005441545553000000D00052455600000056
:104C100000000046574400000000000152535400B9
:104C2000004350590001000000000102030401028A
:104C30000304060708092000002028000000104196
:104C40000000484300000040CDCC4C40000096439B
:104C50000000FA430000FA430000C84300000000CF
:104C6000CDAC1644CDCC4C40CDCC4C40CDCC4C4002
:104C7000CDCC4C407B147642689ACD393598283A91
:104C80003598283A0000000000005C4500004845C7
:104C900007FF882E0000104100004843000000403C
:104CA000CDCC4C40000096430000FA430000FA438C
:104CB0000000C84300000000CDAC1644CDCC4C40F1
:104CC000CDCC4C40CDCC4C40CDCC4C407B1476422E
:104CD000689ACD393598283A3598283A000000006E
:104CE00000005C450000484507FF882E0000104189
:104CF0000000484300000040CDCC4C40000016436B
:104D000000007A4300007A4300004843000000009E
:104D1000CDAC1644CDCC4C40CDCC4C40CDCC4C4051
:104D2000CDCC4C407B147642689ACD393598283AE0
:104D30003598283A0000000000005C450000484516
:104D400007FF882E0000104100004843000000408B
:104D5000CDCC4C400000164300007A4300007A435B
:104D60000000484300000000CDAC1644CDCC4C40C0
:104D7000CDCC4C40CDCC4C40CDCC4C407B1476427D
:104D8000689ACD393598283A3598283A00000000BD
:104D900000005C450000484507FF882E00001041D8
:104DA0000000484300000040CDCC4C4000001643BA
:104DB00000007A4300007A430000484300000000EE
:104DC000CDAC1644CDCC4C40CDCC4C40CDCC4C40A1
:104DD000CDCC4C407B147642689ACD393598283A30
:104DE0003598283A0000000000005C450000484566
:104DF00007FF882E000010410000484300000040DB
:104E0000CDCC4C400000164300007A4300007A43AA
:104E10000000484300000000CDAC1644CDCC4C400F
:104E2000CDCC4C40CDCC4C40CDCC4C407B147642CC
:104E3000689ACD393598283A3598283A000000000C
:104E400000005C450000484507FF882E0000104127
:104E50000000484300000040CDCC4C400000164309
:104E600000007A4300007A4300004843000000003D
:104E7000CDAC1644CDCC4C40CDCC4C40CDCC4C40F0
:104E8000CDCC4C407B147642689ACD393598283A7F
:104E90003598283A0000000000005C4500004845B5
:104EA00007FF882E0000104100004843000000402A
:104EB000CDCC4C400000164300007A4300007A43FA
:104EC0000000484300000000CDAC1644CDCC4C405F
:104ED000CDCC4C40CDCC4C40CDCC4C407B1476421C
:104EE000689ACD393598283A3598283A000000005C
:104EF00000005C450000484507FF882E1C4F000855
:104F000000000020A80300004802000864500008C8
:104F1000A8030020280600004E45000813C93614D7
:104F200008312E1B089108136937140889301C08B2
:104F3000552F1019041AD10413C5351B08ED201A7A
:104F4000210C1A5D241A29041A35281A41281A013D
:104F5000081A0D081AA9201A4D2813A9331B082D69
:104F6000081AA50413B5341B081D041A3D041A5D64
:104F7000041AD5041AE5201A01081A11201AF50896
:104F80001A89081A99081A6D081A7D081AC9201377
:104F90003D2A02140822A6A220130240260802403D
:104FA000E80313670614085F041B0845081AB504D4
:104FB00013D5051B08C3101ADD041AFF041AF710D5
:104FC0001A97081AAD041A2F201A19041A9F041AE6
:104FD0003D181A89081A27081A7D1C1A41041AC19B
:104FE000CC413BA103089970012632010A35B53C3A
:104FF000410A39C9780A39DD780A39F1780B380560
:1050000004780A35193C29780A392D7813A1021B36
:1050100008C03C1310011B204C041315092A085426
:105020005AB5181A88145AC41832025AC9181112DB
:10503000021B203C04291832035ADD181A78145A2E
:10504000B4182930112C0402409942042C08024063
:105050005C690C29202910210C15024010DF021078
:04506000401324F4E1
:040000050800019559
:00000001FF
